{
  "transactions": [
    {
      "hash": "0x5c0faa2e91b106ba4eb0dad95d31383e11191df42bae4208ad24a0ed7214b6e2",
      "transactionType": "CALL",
      "contractName": null,
      "contractAddress": "0xd4652005c4bda2d2514670f8ebd5262fb400919c",
      "function": "applyChainUpdates((uint64,bool,bytes,bytes,(bool,uint128,uint128),(bool,uint128,uint128))[])",
      "arguments": [
        "[(10344971235874465080, true, 0x0000000000000000000000008d90aa3930520665d5e5da93f3f3ef231d589fb4, 0x000000000000000000000000bf95126cc7000c3b195dd99fa304bd7849515f2d, (false, 0, 0), (false, 0, 0))]"
      ],
      "transaction": {
        "from": "0x01bf49d75f2b73a2fdefa7664aef22c86c5be3df",
        "to": "0xd4652005c4bda2d2514670f8ebd5262fb400919c",
        "gas": "0x55392",
        "value": "0x0",
        "input": "0xdb6327dc0000000000000000000000000000000000000000000000000000000000000020000000000000000000000000000000000000000000000000000000000000000100000000000000000000000000000000000000000000000000000000000000200000000000000000000000000000000000000000000000008f90b8876dee653800000000000000000000000000000000000000000000000000000000000000010000000000000000000000000000000000000000000000000000000000000140000000000000000000000000000000000000000000000000000000000000018000000000000000000000000000000000000000000000000000000000000000000000000000000000000000000000000000000000000000000000000000000000000000000000000000000000000000000000000000000000000000000000000000000000000000000000000000000000000000000000000000000000000000000000000000000000000000000000000000000000000000000000000000000000000000000000000000000000000000000000000000000000000000000000000000000000000000000000000000000000000000000000000000000000000000200000000000000000000000008d90aa3930520665d5e5da93f3f3ef231d589fb40000000000000000000000000000000000000000000000000000000000000020000000000000000000000000bf95126cc7000c3b195dd99fa304bd7849515f2d",
        "nonce": "0x5f",
        "chainId": "0xaa36a7"
      },
      "additionalContracts": [],
      "isFixedGasLimit": false
    }
  ],
  "receipts": [
    {
      "status": "0x1",
      "cumulativeGasUsed": "0x142ad76",
      "logs": [
        {
          "address": "0xd4652005c4bda2d2514670f8ebd5262fb400919c",
          "topics": [
            "0x8d340f17e19058004c20453540862a9c62778504476f6756755cb33bcd6c38c2"
          ],
          "data": "0x0000000000000000000000000000000000000000000000008f90b8876dee653800000000000000000000000000000000000000000000000000000000000001000000000000000000000000000000000000000000000000000000000000000000000000000000000000000000000000000000000000000000000000000000000000000000000000000000000000000000000000000000000000000000000000000000000000000000000000000000000000000000000000000000000000000000000000000000000000000000000000000000000000000000000000000000000000000000000000000000000000000000000000000000000000000000000000000000000000000000000000000000000000000000000000000000000000000020000000000000000000000000bf95126cc7000c3b195dd99fa304bd7849515f2d",
          "blockHash": "0x7acf8abc18929e3371169c351ae727b88aa0dd26e9a6e2c788989cd723226fbc",
          "blockNumber": "0x963f76",
          "blockTimestamp": "0x694024e0",
          "transactionHash": "0x5c0faa2e91b106ba4eb0dad95d31383e11191df42bae4208ad24a0ed7214b6e2",
          "transactionIndex": "0x4a",
          "logIndex": "0x2b3",
          "removed": false
        }
      ],
      "logsBloom": "0x00000000000000400000000000000000000000000000000000000000000000008000000000000000000000000000000000000000000000000004000000000000000000000000000000000000000000000000000000000000000000000001000000000000000000000000000000000000000000000000000000000000000000000000000000000000000000000000000000000000000000000000000000000000000000000000000010000000000000000000000000000000000000000000000000000000000000000000000000000000000000000000000000000000000000000000000000000000000000000000000000000000000000000100000000000000",
      "type": "0x2",
      "transactionHash": "0x5c0faa2e91b106ba4eb0dad95d31383e11191df42bae4208ad24a0ed7214b6e2",
      "transactionIndex": "0x4a",
      "blockHash": "0x7acf8abc18929e3371169c351ae727b88aa0dd26e9a6e2c788989cd723226fbc",
      "blockNumber": "0x963f76",
      "gasUsed": "0x3db34",
      "effectiveGasPrice": "0x1eaeff",
      "from": "0x01bf49d75f2b73a2fdefa7664aef22c86c5be3df",
      "to": "0xd4652005c4bda2d2514670f8ebd5262fb400919c",
      "contractAddress": null
    }
  ],
  "libraries": [],
  "pending": [],
  "returns": {},
  "timestamp": 1765811426820,
  "chain": 11155111,
  "commit": "953bfdf"
}