{
  "transactions": [
    {
      "hash": "0x84d53a7cf569b300162d5264734d4241e5d5ca9066afe0a9ba98730d8b142acd",
      "transactionType": "CALL",
      "contractName": null,
      "contractAddress": "0x8d90aa3930520665d5e5da93f3f3ef231d589fb4",
      "function": "applyChainUpdates((uint64,bool,bytes,bytes,(bool,uint128,uint128),(bool,uint128,uint128))[])",
      "arguments": [
        "[(16015286601757825753, true, 0x000000000000000000000000d4652005c4bda2d2514670f8ebd5262fb400919c, 0x000000000000000000000000eeab69045da330c5813a9b4417125b9f6d291c5a, (false, 0, 0), (false, 0, 0))]"
      ],
      "transaction": {
        "from": "0x01bf49d75f2b73a2fdefa7664aef22c86c5be3df",
        "to": "0x8d90aa3930520665d5e5da93f3f3ef231d589fb4",
        "gas": "0x55392",
        "value": "0x0",
        "input": "0xdb6327dc000000000000000000000000000000000000000000000000000000000000002000000000000000000000000000000000000000000000000000000000000000010000000000000000000000000000000000000000000000000000000000000020000000000000000000000000000000000000000000000000de41ba4fc9d91ad90000000000000000000000000000000000000000000000000000000000000001000000000000000000000000000000000000000000000000000000000000014000000000000000000000000000000000000000000000000000000000000001800000000000000000000000000000000000000000000000000000000000000000000000000000000000000000000000000000000000000000000000000000000000000000000000000000000000000000000000000000000000000000000000000000000000000000000000000000000000000000000000000000000000000000000000000000000000000000000000000000000000000000000000000000000000000000000000000000000000000000000000000000000000000000000000000000000000000000000000000000000000000000000000000000000000000020000000000000000000000000d4652005c4bda2d2514670f8ebd5262fb400919c0000000000000000000000000000000000000000000000000000000000000020000000000000000000000000eeab69045da330c5813a9b4417125b9f6d291c5a",
        "nonce": "0x24",
        "chainId": "0x14a34"
      },
      "additionalContracts": [],
      "isFixedGasLimit": false
    }
  ],
  "receipts": [
    {
      "status": "0x1",
      "cumulativeGasUsed": "0x21557a",
      "logs": [
        {
          "address": "0x8d90aa3930520665d5e5da93f3f3ef231d589fb4",
          "topics": [
            "0x8d340f17e19058004c20453540862a9c62778504476f6756755cb33bcd6c38c2"
          ],
          "data": "0x000000000000000000000000000000000000000000000000de41ba4fc9d91ad900000000000000000000000000000000000000000000000000000000000001000000000000000000000000000000000000000000000000000000000000000000000000000000000000000000000000000000000000000000000000000000000000000000000000000000000000000000000000000000000000000000000000000000000000000000000000000000000000000000000000000000000000000000000000000000000000000000000000000000000000000000000000000000000000000000000000000000000000000000000000000000000000000000000000000000000000000000000000000000000000000000000000000000000000000020000000000000000000000000eeab69045da330c5813a9b4417125b9f6d291c5a",
          "blockHash": "0x66e92a2f83123f895482c299394db4c7af386adc7402cebe6dd20b80b140ebf8",
          "blockNumber": "0x2166308",
          "blockTimestamp": "0x694024f0",
          "transactionHash": "0x84d53a7cf569b300162d5264734d4241e5d5ca9066afe0a9ba98730d8b142acd",
          "transactionIndex": "0xc",
          "logIndex": "0x3f",
          "removed": false
        }
      ],
      "logsBloom": "0x00000000000000400000000000000000000000000000000000000000000000040000000000000000000000000000000000000000000000000004000000000000000000000000000000000000000000000000000000000000000000000000000000000000000000000000000000000000000000000000000000000000000000000200000000000000000000000000000000000000000000000000000000000000000000000000000000000000000000000000000000000000000000000000000000000000000040000000000000000000000000000000000000000000000000000000000000000000000000000000000000000000000000000100000000000000",
      "type": "0x2",
      "transactionHash": "0x84d53a7cf569b300162d5264734d4241e5d5ca9066afe0a9ba98730d8b142acd",
      "transactionIndex": "0xc",
      "blockHash": "0x66e92a2f83123f895482c299394db4c7af386adc7402cebe6dd20b80b140ebf8",
      "blockNumber": "0x2166308",
      "gasUsed": "0x3db34",
      "effectiveGasPrice": "0x124f80",
      "blobGasUsed": "0xb328",
      "from": "0x01bf49d75f2b73a2fdefa7664aef22c86c5be3df",
      "to": "0x8d90aa3930520665d5e5da93f3f3ef231d589fb4",
      "contractAddress": null,
      "daFootprintGasScalar": "0x138",
      "l1BaseFeeScalar": "0x44d",
      "l1BlobBaseFee": "0xac36",
      "l1BlobBaseFeeScalar": "0xa118b",
      "l1Fee": "0x5e5c1d",
      "l1GasPrice": "0xb2ab8",
      "l1GasUsed": "0x934"
    }
  ],
  "libraries": [],
  "pending": [],
  "returns": {},
  "timestamp": 1765811443033,
  "chain": 84532,
  "commit": "953bfdf"
}