{
  "transactions": [
    {
      "hash": "0x9e5a9249dca4ad993cd6edc2e772e41237c609b2e97f83aff45ba845c5d3bc62",
      "transactionType": "CALL",
      "contractName": null,
      "contractAddress": "0x779877a7b0d9e8603169ddbd7836e478b4624789",
      "function": "approve(address,uint256)",
      "arguments": [
        "0x0BF3dE8c5D3e8A2B34D2BEeB17ABfCeBaf363A59",
        "17068226840590157"
      ],
      "transaction": {
        "from": "0x01bf49d75f2b73a2fdefa7664aef22c86c5be3df",
        "to": "0x779877a7b0d9e8603169ddbd7836e478b4624789",
        "gas": "0x1081f",
        "value": "0x0",
        "input": "0x095ea7b30000000000000000000000000bf3de8c5d3e8a2b34d2beeb17abfcebaf363a59000000000000000000000000000000000000000000000000003ca3763dc7774d",
        "nonce": "0x60",
        "chainId": "0xaa36a7"
      },
      "additionalContracts": [],
      "isFixedGasLimit": false
    },
    {
      "hash": "0xea44c964526e36991de0e3061e9cf3d7ccd7b5d74c58deebf52c251fe695f71d",
      "transactionType": "CALL",
      "contractName": null,
      "contractAddress": "0xeeab69045da330c5813a9b4417125b9f6d291c5a",
      "function": "approve(address,uint256)",
      "arguments": [
        "0x0BF3dE8c5D3e8A2B34D2BEeB17ABfCeBaf363A59",
        "100000"
      ],
      "transaction": {
        "from": "0x01bf49d75f2b73a2fdefa7664aef22c86c5be3df",
        "to": "0xeeab69045da330c5813a9b4417125b9f6d291c5a",
        "gas": "0x11554",
        "value": "0x0",
        "input": "0x095ea7b30000000000000000000000000bf3de8c5d3e8a2b34d2beeb17abfcebaf363a5900000000000000000000000000000000000000000000000000000000000186a0",
        "nonce": "0x61",
        "chainId": "0xaa36a7"
      },
      "additionalContracts": [],
      "isFixedGasLimit": false
    },
    {
      "hash": "0xef86b031b822bfaf48fa1b22fa181d74bec823c474249a8f8ac9b9ce944640e6",
      "transactionType": "CALL",
      "contractName": null,
      "contractAddress": "0x0bf3de8c5d3e8a2b34d2beeb17abfcebaf363a59",
      "function": "ccipSend(uint64,(bytes,bytes,(address,uint256)[],address,bytes))",
      "arguments": [
        "10344971235874465080",
        "(0x00000000000000000000000001bf49d75f2b73a2fdefa7664aef22c86c5be3df, 0x, [(0xEeab69045dA330C5813A9b4417125B9f6D291c5a, 100000)], 0x779877A7B0D9E8603169DdbD7836e478b4624789, 0x97a657c90000000000000000000000000000000000000000000000000000000000000000)"
      ],
      "transaction": {
        "from": "0x01bf49d75f2b73a2fdefa7664aef22c86c5be3df",
        "to": "0x0bf3de8c5d3e8a2b34d2beeb17abfcebaf363a59",
        "gas": "0x6a0b1",
        "value": "0x0",
        "input": "0x96f4e9f90000000000000000000000000000000000000000000000008f90b8876dee6538000000000000000000000000000000000000000000000000000000000000004000000000000000000000000000000000000000000000000000000000000000a000000000000000000000000000000000000000000000000000000000000000e00000000000000000000000000000000000000000000000000000000000000100000000000000000000000000779877a7b0d9e8603169ddbd7836e478b46247890000000000000000000000000000000000000000000000000000000000000160000000000000000000000000000000000000000000000000000000000000002000000000000000000000000001bf49d75f2b73a2fdefa7664aef22c86c5be3df00000000000000000000000000000000000000000000000000000000000000000000000000000000000000000000000000000000000000000000000000000001000000000000000000000000eeab69045da330c5813a9b4417125b9f6d291c5a00000000000000000000000000000000000000000000000000000000000186a0000000000000000000000000000000000000000000000000000000000000002497a657c9000000000000000000000000000000000000000000000000000000000000000000000000000000000000000000000000000000000000000000000000",
        "nonce": "0x62",
        "chainId": "0xaa36a7"
      },
      "additionalContracts": [],
      "isFixedGasLimit": false
    }
  ],
  "receipts": [
    {
      "status": "0x1",
      "cumulativeGasUsed": "0x141f7c2",
      "logs": [
        {
          "address": "0x779877a7b0d9e8603169ddbd7836e478b4624789",
          "topics": [
            "0x8c5be1e5ebec7d5bd14f71427d1e84f3dd0314c0f7b2291e5b200ac8c7c3b925",
            "0x00000000000000000000000001bf49d75f2b73a2fdefa7664aef22c86c5be3df",
            "0x0000000000000000000000000bf3de8c5d3e8a2b34d2beeb17abfcebaf363a59"
          ],
          "data": "0x000000000000000000000000000000000000000000000000003ca3763dc7774d",
          "blockHash": "0xc6fa5b1b4ca3fb955fa7fed1fd0a0f43b4586d27d2f87486d64a80ea9e91ad9d",
          "blockNumber": "0x964008",
          "blockTimestamp": "0x69402bc4",
          "transactionHash": "0x9e5a9249dca4ad993cd6edc2e772e41237c609b2e97f83aff45ba845c5d3bc62",
          "transactionIndex": "0x3c",
          "logIndex": "0x24b",
          "removed": false
        }
      ],
      "logsBloom": "0x00000004000040000000000000000000000000000000000000000000000000000000000000000000000000000000002000000000000000000000000000200000000000000000000000000000000000000000000000000000000000200000000000000000000100000000000000000000000000000000000000000000000000000000000000000000000000000000800000000000000000000000000000000000020000000000080000000000000000000000000000100000000000000000000000000000000000000000000000000000000000000000000100000000000000000010000000000000000000000000000000000000000000000000000000000000",
      "type": "0x2",
      "transactionHash": "0x9e5a9249dca4ad993cd6edc2e772e41237c609b2e97f83aff45ba845c5d3bc62",
      "transactionIndex": "0x3c",
      "blockHash": "0xc6fa5b1b4ca3fb955fa7fed1fd0a0f43b4586d27d2f87486d64a80ea9e91ad9d",
      "blockNumber": "0x964008",
      "gasUsed": "0xb499",
      "effectiveGasPrice": "0x273bb2",
      "from": "0x01bf49d75f2b73a2fdefa7664aef22c86c5be3df",
      "to": "0x779877a7b0d9e8603169ddbd7836e478b4624789",
      "contractAddress": null
    },
    {
      "status": "0x1",
      "cumulativeGasUsed": "0x142b563",
      "logs": [
        {
          "address": "0xeeab69045da330c5813a9b4417125b9f6d291c5a",
          "topics": [
            "0x8c5be1e5ebec7d5bd14f71427d1e84f3dd0314c0f7b2291e5b200ac8c7c3b925",
            "0x00000000000000000000000001bf49d75f2b73a2fdefa7664aef22c86c5be3df",
            "0x0000000000000000000000000bf3de8c5d3e8a2b34d2beeb17abfcebaf363a59"
          ],
          "data": "0x00000000000000000000000000000000000000000000000000000000000186a0",
          "blockHash": "0xc6fa5b1b4ca3fb955fa7fed1fd0a0f43b4586d27d2f87486d64a80ea9e91ad9d",
          "blockNumber": "0x964008",
          "blockTimestamp": "0x69402bc4",
          "transactionHash": "0xea44c964526e36991de0e3061e9cf3d7ccd7b5d74c58deebf52c251fe695f71d",
          "transactionIndex": "0x3d",
          "logIndex": "0x24c",
          "removed": false
        }
      ],
      "logsBloom": "0x00000000000040000000000000000000000000000000000000000000000000000000000000000000000000000000002000000000000000000000000000200000000000000000000000000000000000000000000000000000000000200000000000000000000100000000000000000000000000000000000000000000000000000000000000000000000000000000000000000000004000000000000000000000020000000000080000000000000000000000000000101000000000000000000000000000000000000000000000000000000800000000000000000000000000000010000000000000000000000000000000000000000000000000000000000000",
      "type": "0x2",
      "transactionHash": "0xea44c964526e36991de0e3061e9cf3d7ccd7b5d74c58deebf52c251fe695f71d",
      "transactionIndex": "0x3d",
      "blockHash": "0xc6fa5b1b4ca3fb955fa7fed1fd0a0f43b4586d27d2f87486d64a80ea9e91ad9d",
      "blockNumber": "0x964008",
      "gasUsed": "0xbda1",
      "effectiveGasPrice": "0x273bb2",
      "from": "0x01bf49d75f2b73a2fdefa7664aef22c86c5be3df",
      "to": "0xeeab69045da330c5813a9b4417125b9f6d291c5a",
      "contractAddress": null
    },
    {
      "status": "0x1",
      "cumulativeGasUsed": "0x14781c3",
      "logs": [
        {
          "address": "0x779877a7b0d9e8603169ddbd7836e478b4624789",
          "topics": [
            "0xddf252ad1be2c89b69c2b068fc378daa952ba7f163c4a11628f55a4df523b3ef",
            "0x00000000000000000000000001bf49d75f2b73a2fdefa7664aef22c86c5be3df",
            "0x0000000000000000000000008f35b097022135e0f46831f798a240cc8c4b0b01"
          ],
          "data": "0x000000000000000000000000000000000000000000000000003ca3763dc7774d",
          "blockHash": "0xc6fa5b1b4ca3fb955fa7fed1fd0a0f43b4586d27d2f87486d64a80ea9e91ad9d",
          "blockNumber": "0x964008",
          "blockTimestamp": "0x69402bc4",
          "transactionHash": "0xef86b031b822bfaf48fa1b22fa181d74bec823c474249a8f8ac9b9ce944640e6",
          "transactionIndex": "0x3e",
          "logIndex": "0x24d",
          "removed": false
        },
        {
          "address": "0x779877a7b0d9e8603169ddbd7836e478b4624789",
          "topics": [
            "0x8c5be1e5ebec7d5bd14f71427d1e84f3dd0314c0f7b2291e5b200ac8c7c3b925",
            "0x00000000000000000000000001bf49d75f2b73a2fdefa7664aef22c86c5be3df",
            "0x0000000000000000000000000bf3de8c5d3e8a2b34d2beeb17abfcebaf363a59"
          ],
          "data": "0x0000000000000000000000000000000000000000000000000000000000000000",
          "blockHash": "0xc6fa5b1b4ca3fb955fa7fed1fd0a0f43b4586d27d2f87486d64a80ea9e91ad9d",
          "blockNumber": "0x964008",
          "blockTimestamp": "0x69402bc4",
          "transactionHash": "0xef86b031b822bfaf48fa1b22fa181d74bec823c474249a8f8ac9b9ce944640e6",
          "transactionIndex": "0x3e",
          "logIndex": "0x24e",
          "removed": false
        },
        {
          "address": "0xeeab69045da330c5813a9b4417125b9f6d291c5a",
          "topics": [
            "0xddf252ad1be2c89b69c2b068fc378daa952ba7f163c4a11628f55a4df523b3ef",
            "0x0000000000000000000000000000000000000000000000000000000000000000",
            "0x00000000000000000000000001bf49d75f2b73a2fdefa7664aef22c86c5be3df"
          ],
          "data": "0x0000000000000000000000000000000000000000000000000000000000000011",
          "blockHash": "0xc6fa5b1b4ca3fb955fa7fed1fd0a0f43b4586d27d2f87486d64a80ea9e91ad9d",
          "blockNumber": "0x964008",
          "blockTimestamp": "0x69402bc4",
          "transactionHash": "0xef86b031b822bfaf48fa1b22fa181d74bec823c474249a8f8ac9b9ce944640e6",
          "transactionIndex": "0x3e",
          "logIndex": "0x24f",
          "removed": false
        },
        {
          "address": "0xeeab69045da330c5813a9b4417125b9f6d291c5a",
          "topics": [
            "0xddf252ad1be2c89b69c2b068fc378daa952ba7f163c4a11628f55a4df523b3ef",
            "0x0000000000000000000000000000000000000000000000000000000000000000",
            "0x000000000000000000000000d4652005c4bda2d2514670f8ebd5262fb400919c"
          ],
          "data": "0x0000000000000000000000000000000000000000000000000000000000000000",
          "blockHash": "0xc6fa5b1b4ca3fb955fa7fed1fd0a0f43b4586d27d2f87486d64a80ea9e91ad9d",
          "blockNumber": "0x964008",
          "blockTimestamp": "0x69402bc4",
          "transactionHash": "0xef86b031b822bfaf48fa1b22fa181d74bec823c474249a8f8ac9b9ce944640e6",
          "transactionIndex": "0x3e",
          "logIndex": "0x250",
          "removed": false
        },
        {
          "address": "0xeeab69045da330c5813a9b4417125b9f6d291c5a",
          "topics": [
            "0xddf252ad1be2c89b69c2b068fc378daa952ba7f163c4a11628f55a4df523b3ef",
            "0x00000000000000000000000001bf49d75f2b73a2fdefa7664aef22c86c5be3df",
            "0x000000000000000000000000d4652005c4bda2d2514670f8ebd5262fb400919c"
          ],
          "data": "0x00000000000000000000000000000000000000000000000000000000000186a0",
          "blockHash": "0xc6fa5b1b4ca3fb955fa7fed1fd0a0f43b4586d27d2f87486d64a80ea9e91ad9d",
          "blockNumber": "0x964008",
          "blockTimestamp": "0x69402bc4",
          "transactionHash": "0xef86b031b822bfaf48fa1b22fa181d74bec823c474249a8f8ac9b9ce944640e6",
          "transactionIndex": "0x3e",
          "logIndex": "0x251",
          "removed": false
        },
        {
          "address": "0xeeab69045da330c5813a9b4417125b9f6d291c5a",
          "topics": [
            "0xddf252ad1be2c89b69c2b068fc378daa952ba7f163c4a11628f55a4df523b3ef",
            "0x0000000000000000000000000000000000000000000000000000000000000000",
            "0x000000000000000000000000d4652005c4bda2d2514670f8ebd5262fb400919c"
          ],
          "data": "0x0000000000000000000000000000000000000000000000000000000000000000",
          "blockHash": "0xc6fa5b1b4ca3fb955fa7fed1fd0a0f43b4586d27d2f87486d64a80ea9e91ad9d",
          "blockNumber": "0x964008",
          "blockTimestamp": "0x69402bc4",
          "transactionHash": "0xef86b031b822bfaf48fa1b22fa181d74bec823c474249a8f8ac9b9ce944640e6",
          "transactionIndex": "0x3e",
          "logIndex": "0x252",
          "removed": false
        },
        {
          "address": "0xeeab69045da330c5813a9b4417125b9f6d291c5a",
          "topics": [
            "0xddf252ad1be2c89b69c2b068fc378daa952ba7f163c4a11628f55a4df523b3ef",
            "0x000000000000000000000000d4652005c4bda2d2514670f8ebd5262fb400919c",
            "0x0000000000000000000000000000000000000000000000000000000000000000"
          ],
          "data": "0x00000000000000000000000000000000000000000000000000000000000186a0",
          "blockHash": "0xc6fa5b1b4ca3fb955fa7fed1fd0a0f43b4586d27d2f87486d64a80ea9e91ad9d",
          "blockNumber": "0x964008",
          "blockTimestamp": "0x69402bc4",
          "transactionHash": "0xef86b031b822bfaf48fa1b22fa181d74bec823c474249a8f8ac9b9ce944640e6",
          "transactionIndex": "0x3e",
          "logIndex": "0x253",
          "removed": false
        },
        {
          "address": "0x8f35b097022135e0f46831f798a240cc8c4b0b01",
          "topics": [
            "0xd0c3c799bf9e2639de44391e7f524d229b2b55f5b1ea94b2bf7da42f7243dddd"
          ],
          "data": "0x0000000000000000000000000000000000000000000000000000000000000020000000000000000000000000000000000000000000000000de41ba4fc9d91ad900000000000000000000000001bf49d75f2b73a2fdefa7664aef22c86c5be3df00000000000000000000000001bf49d75f2b73a2fdefa7664aef22c86c5be3df0000000000000000000000000000000000000000000000000000000000006049000000000000000000000000000000000000000000000000000000000000000000000000000000000000000000000000000000000000000000000000000000000000000000000000000000000000000000000000000000000000000000000001000000000000000000000000779877a7b0d9e8603169ddbd7836e478b4624789000000000000000000000000000000000000000000000000003ca3763dc7774d00000000000000000000000000000000000000000000000000000000000001a000000000000000000000000000000000000000000000000000000000000001c00000000000000000000000000000000000000000000000000000000000000220af1342bbb2072e0d6d41fb239e9b15cd28cd33b550cb27b2b62bc1faf584a7ca00000000000000000000000000000000000000000000000000000000000000000000000000000000000000000000000000000000000000000000000000000001000000000000000000000000eeab69045da330c5813a9b4417125b9f6d291c5a00000000000000000000000000000000000000000000000000000000000186a00000000000000000000000000000000000000000000000000000000000000001000000000000000000000000000000000000000000000000000000000000002000000000000000000000000000000000000000000000000000000000000001600000000000000000000000000000000000000000000000000000000000000020000000000000000000000000000000000000000000000000000000000000008000000000000000000000000000000000000000000000000000000000000000c000000000000000000000000000000000000000000000000000000000000001000000000000000000000000000000000000000000000000000000000000015f900000000000000000000000000000000000000000000000000000000000000020000000000000000000000000d4652005c4bda2d2514670f8ebd5262fb400919c0000000000000000000000000000000000000000000000000000000000000020000000000000000000000000bf95126cc7000c3b195dd99fa304bd7849515f2d00000000000000000000000000000000000000000000000000000000000000200000000000000000000000000000000000000000000000000000000ba43b7400",
          "blockHash": "0xc6fa5b1b4ca3fb955fa7fed1fd0a0f43b4586d27d2f87486d64a80ea9e91ad9d",
          "blockNumber": "0x964008",
          "blockTimestamp": "0x69402bc4",
          "transactionHash": "0xef86b031b822bfaf48fa1b22fa181d74bec823c474249a8f8ac9b9ce944640e6",
          "transactionIndex": "0x3e",
          "logIndex": "0x254",
          "removed": false
        }
      ],
      "logsBloom": "0x00000004000040000000000000000000000000000000000000000000008000000000000000000000000000000000002000000000000040000000000000200000000000000000000000000008000000010000000000000000000000200000000000000000020100000000000010000800000000000800000000000010000000000004000000000000000000000000800000000000004000000000004000000000020000000000080400000000000000000000000000101000000100000000000000000002000000100000000000080000000800000000000100000000000020000010000000000000000000000000000004000000000000000000000000000000",
      "type": "0x2",
      "transactionHash": "0xef86b031b822bfaf48fa1b22fa181d74bec823c474249a8f8ac9b9ce944640e6",
      "transactionIndex": "0x3e",
      "blockHash": "0xc6fa5b1b4ca3fb955fa7fed1fd0a0f43b4586d27d2f87486d64a80ea9e91ad9d",
      "blockNumber": "0x964008",
      "gasUsed": "0x4cc60",
      "effectiveGasPrice": "0x273bb2",
      "from": "0x01bf49d75f2b73a2fdefa7664aef22c86c5be3df",
      "to": "0x0bf3de8c5d3e8a2b34d2beeb17abfcebaf363a59",
      "contractAddress": null
    }
  ],
  "libraries": [],
  "pending": [],
  "returns": {},
  "timestamp": 1765813189515,
  "chain": 11155111,
  "commit": "953bfdf"
}